:100000000C94CE010C9406020C9406020C94060289
:100010000C9406020C9406020C9406020C94060240
:100020000C9406020C9406020C9406020C94BA1D61
:100030000C946B1E0C944F180C9406020C94060240
:100040000C9406020C9406020C9406020C94D5182B
:100050000C9406020C9406020C9406020C94060200
:100060000C9406020C9406020C9406020C940602F0
:100070000C940602AC00AE000000AB0000002E00A5
:10008000540055005600A8005F0060006100570052
:1000900026025C005D005E002502270259005A001E
:1000A0005B005800075D6241000063000000045DD2
:1000B000010001000000010000000100010001003A
:1000C000010001009483C083A38301000100A68383
:1000D000A883A98301000100B883C383C9830100F9
:1000E00001006240000001000000075D44454255E8
:1000F000473A2064697361626C65642E0A00444566
:100100004255473A20656E61626C65642E0A0000B4
:10011000000000000000002A2B2800000000000062
:100120000000000000000000000029000000002C7A
:100130001E3420212224342627252E362D37382719
:100140001E1F202122232425263333362E37381F25
:100150000405060708090A0B0C0D0E0F10111213E7
:100160001415161718191A1B1C1D2F3130232D3585
:100170000405060708090A0B0C0D0E0F10111213C7
:100180001415161718191A1B1C1D2F3130354C0069
:10019000000000000000000000000000000000005F
:1001A000000000000000000000000000000000004F
:1001B0000000007E0F00D4FFFFFFC7000000780A98
:1001C0000025303258006C65645F7461736B3A20AF
:1001D000004F6E6573686F743A2061637469766569
:1001E0003A2025640A000A0025303862003A2000CF
:1001F00025303258000A722F6320303132333435C3
:1002000036370A00556E69636F646520696E7075D4
:1002100074206D6F64652073657420746F3A2025B7
:10022000750A00556E69636F646520696E70757438
:10023000206D6F646520696E697420746F3A2025A3
:10024000750A000A002530325820006B6579626F0C
:100250006172645F7265706F72743A20005B735DE7
:10026000005B575D005B535D005B525D0012034A0B
:10027000004B0061007400740070006100640000B5
:100280000014034A004B00610074007400610063B5
:10029000006B006B0000000403090409025B00030B
:1002A0000100A0320904000001030101000921112D
:1002B0000100012240000705810308000109040133
:1002C0000001030000000921110100012232000792
:1002D0000582032000010904020002030000000956
:1002E00021110100012222000705830320000107DC
:1002F0000503032000011201000200000008EDFECA
:1003000065640000010200010631FF0974A10109C2
:1003100075150026FF0095207508810209761500E5
:1003200026FF00952075089102C005010980A101F2
:10033000850319012AB700150126B700950175102C
:100340008100C0050C0901A101850419012AA00240
:10035000150126A002950175108100C0050109064E
:10036000A101050719E029E7150025019508750188
:1003700081029501750881010507190029FF150003
:1003800026FF0095067508810005081901290595C5
:100390000575019102950175039101C011241FBEDD
:1003A000CFEFD4E0DEBFCDBF04B603FE18C080910E
:1003B000650290916602A0916702B0916802873051
:1003C000904BA740B04B59F4109265021092660210
:1003D0001092670210926802E0E0F8E3099511E0DC
:1003E000A0E0B1E0EEEAF1E402C005900D92AE3972
:1003F000B107D9F722E0AEE9B1E001C01D92A53600
:10040000B207E1F70E948A130C94BF200C940000FD
:10041000FF93EF93E0919E01F0919F01309709F0D7
:100420000995EF91FF910895FC018591803011F0BD
:10043000EFDFFBCF0895FF27E0E230E247FF0CC07B
:10044000419597FF09C0EDE2609570958095909574
:10045000611D711D811D911D27FF02C0219530E393
:1004600050E2AA27660F771F881F991FAA1FA4179B
:1004700010F0A41B63955A95A9F7AA3008F0A95F5C
:10048000A05DAF93F395611571058105910541F765
:10049000ED3211F4EF93F395F21718F43F93F395BF
:1004A000FBCF8F91B5DFFA95E1F70895E991F991C6
:1004B0008591803021F0853219F0AADFF9CF0895B7
:1004C00020E0E89455915532C1F3503311F468940B
:1004D00055915A3348F4505390F3220F022E220FB5
:1004E000220F200D250FF4CF0EF4219589919991BB
:1004F000533619F3533729F1533559F1BC01882785
:100500009927E8945C3621F48991999168945591E2
:10051000543639F446EF7EF077FF0DC08FEF9FEF32
:100520000AC055374AE039F0583540E121F05236DB
:1005300042E009F00895FF93EF937DDFEF91FF9183
:10054000B7CFFF93EF93FC0181918030B9F360DF67
:10055000FBCFFF93EF9368DFF1CFDF93CF93CDB75E
:10056000DEB72596A3DFCF91DF9108953D9A88B13C
:1005700018B80895662339F06AE070E089EA0E94AD
:100580009E0580E008956AE070E08AEAF8CF9C0159
:100590003A9521153F4150F5FC01EE27F170BC0161
:1005A00066277270AC01442754709C012227387072
:1005B00094FF0EC080E1EF2B09F480E0672B09F077
:1005C0008062452B09F08064232B89F080680895B0
:1005D00081E0EF2B09F480E0672B09F08260452B66
:1005E00009F08460232B19F08860089580E0089555
:1005F000CF93DF93EB010E94C702FE01DF91CF9101
:100600000994CF93DF93EC01805E9109089720F065
:1006100069E278E0209711F46DEB75E0CE010E945D
:10062000F8028C2FDF91CF910C943005CF93DF939C
:10063000EC010E947605CE01805E9109089720F0BA
:1006400060E378E0209711F464EC75E0CE01DF916F
:10065000CF910C94F802CF93DF93EC010E94010339
:10066000C933D10549F42FEF87EE93E02150804044
:100670009040E1F700C00000CE01DF91CF910C94D3
:10068000160381E0089581E008950C9443030895D2
:100690000C9447031F93CF93DF9300D000D00F92A9
:1006A000CDB7DEB749835A836B833091A10189812D
:1006B0009A8131111DC06623B9F02223A9F00E944E
:1006C000FD09182F682F89819A810E949A096981F2
:1006D0007A81812F0F900F900F900F900F90DF91E4
:1006E000CF911F910C94DC100E94D109182FEFCFED
:1006F0000E94FD0969817A81EDCFFC01262F40819E
:1007000051816281738184810C944A0381E0089550
:10071000CF93DF93EC0160E00E947D03BE01DF9187
:10072000CF910C9448030C94FA110C94FD11089588
:100730000E9447080E9497032FEF84E39CE021501A
:1007400080409040E1F700C000000C94F9180F932E
:100750001F93CF93DF938C0161E00E947D03EC0136
:10076000B8010E9445038823F1F1B801CE010E942F
:100770008F148823C1F1B801CE010E94E2168823AC
:1007800091F1B801CE010E94AB14882361F1B80148
:10079000CE010E944C16882331F1F8018281882312
:1007A00061F0CF3DFCE5DF07B1F170F4C115ECE578
:1007B000DE07B9F0C130DC45E1F0C801DF91CF912F
:1007C0001F910F910C944103CC358DE5D80749F169
:1007D000CD35DC0719F1CB35DD4579F70E945B0E8D
:1007E000ECCF0E94980380E0DF91CF911F910F9191
:1007F000089590911C02892F8E7F90FF81608093D5
:100800001C0280FF05C08EEF90E00E941402EBCF27
:100810008CEE90E0FACF0E94060FE5CF0E94520EB8
:10082000CCCF0E945E0EC9CF0E9434180C94B40441
:100830000E94B7040C943818DF92EF92FF920F9346
:100840001F93CF93DF93E82FF0E0E15FFE4FD4904A
:10085000282F26952695269530E0F901E155FE4F83
:100860000491877010E0082E02C0159507950A9430
:10087000E2F701701127F901E156FE4FE490F12CE7
:10088000082E02C0F594E7940A94E2F791E0E92279
:10089000FF24F901E157FE4FC491D0E002C0D59585
:1008A000C7958A95E2F7C170DD270115110519F08A
:1008B00081EE0E943005E114F10419F086EE0E94E9
:1008C00030058D2D0E94B505EF2819F086EE0E94A7
:1008D0007605012B19F081EE0E947605CD2B51F0A3
:1008E0008CE2DF91CF911F910F91FF90EF90DF90FD
:1008F0000C94B505DF91CF911F910F91FF90EF9070
:10090000DF900895982F9F709A50963018F0805D70
:100910000C941C04895AFCCF829590E09C01220F14
:10092000331F220F331F2C7C9595879595958795BE
:100930008373282B30E0C901880F991F8A7A359577
:1009400027952575822B089508950C94A40481E0C1
:1009500008950C94A7040895CF93C82F0E94A5046E
:100960008C2FCF910C94A90480E00C94AC040E94CD
:100970003E170C94AC04CF930E943E17C82F809171
:10098000A0018C1741F1C093A00180911C0282FF4D
:100990001EC080FF1CC086EC91E00E941402809172
:1009A0001C0280FF14C01F92CF9381EC91E09F93B3
:1009B0008F930E94AD0280911C020F900F900F90B8
:1009C0000F9080FF04C08FEB91E00E9414028C2FE7
:1009D000CF910C94AC04CF910895CF93DF93CDB712
:1009E000DEB72B970FB6F894DEBF0FBECDBF4F8397
:1009F000588769877A878B8761110E948D0D1E82C7
:100A00001D8285E0FE013796DE01119601900D9260
:100A10008A95E1F78C819D81892B89F449815A81DE
:100A20006B817C818D819E810E94A70C2B960FB6D5
:100A3000F894DEBF0FBECDBFDF91CF9108958981BD
:100A40009A8189238F3F51F3CE0101960E9486033C
:100A50008111E4CFEBCFFC01808191810C943F0A9E
:100A6000CF93C82F882309F43FC08CEF8C0F813AB5
:100A7000A0F46C2F80910201909103010E94D7177E
:100A8000882329F08C2F0E944C0D0E94AD0D8C2FD5
:100A90000E94450DCF910C94AD0D80E28C0F8830F3
:100AA00048F4C77081E001C0880FCA95EAF70E9438
:100AB0006D0DF0CFEBE5EC0FE33040F4F0E0E15CDE
:100AC000FE4F808190E0CF910C949917C85AC7319E
:100AD00058F4EC2FF0E0EE0FFF1FEF5EFE4F808129
:100AE0009181CF910C94AF17CF910895882329F16C
:100AF0009CEF980F913A20F40E944C0D0C94AD0D90
:100B000090E2980F983050F4877091E001C0990FEF
:100B10008A95EAF7892F0E94730DF0CF9BE5980F15
:100B2000933020F490E080E00C949917885A873134
:100B300020F490E080E00C94AF1708951F93CF93BA
:100B4000DF93182FEB010E943005209731F4812F9D
:100B5000DF91CF911F910C9476058FE99FE001976B
:100B6000F1F700C000002197F0CF70E060E089331A
:100B700011F460E570E00C949E05882321F00E943A
:100B80006D0D0C94AD0D0895882321F00E94730D16
:100B90000C94AD0D0895BF92CF92DF92EF92FF9229
:100BA0000F931F93CF93DF936C01D62FC72FFC01B8
:100BB0001281F580F2949FE0F9220E94630DE82EE5
:100BC0008823B9F0E12E1123A1F08C2F807F80348F
:100BD00021F080E28D0F8830D0F08091400282FDBC
:100BE00016C082E00E940E0E0E94630D91E0E82E76
:100BF000E926BC2EB2948FE0B822FBE0FB1508F486
:100C000068C0EB2DF0E0EF53FF4D0C945620E12C23
:100C1000F0CF0C2F0F70C07F11F00295007F1123D1
:100C200099F0002359F080E28D0F883010F0D11137
:100C300007C0802F0E946D0D0E94AD0D8D2F41C009
:100C4000802F0E94800DF8CF8D2F0E947605002303
:100C500009F43FC080E28D0F883010F0D11104C03C
:100C6000802F0E94730D03C0802F0E94860D0E946A
:100C7000AD0D2FC00C2F0F70C07FC03211F0029548
:100C8000007FDD2381F0D13009F469C0112309F41C
:100C900073C0FF2009F469C0F601858180FFCECFC3
:100CA0008F70858362C08091400282FF38C011231B
:100CB00059F0002329F0802F0E946D0D0E94AD0D88
:100CC00080E00E94300505C080E00E947605011199
:100CD000C7CFEB2DE850FF0B349720F40E943E174E
:100CE0000E94AC04EE2009F467C10E945F0D80FDF4
:100CF00063C1F60112820E94590D0E94FE08C601CE
:100D00000E94FD070E94590DDF91CF911F910F9115
:100D1000FF90EF90DF90CF90BF900C941F091123AC
:100D200089F0F11006C00E94900D802B0E94BD0535
:100D3000D0CF21E0F212F7CF0E94900D802B0E94BD
:100D4000960DC7CFF11006C00E94A30D802F0E9400
:100D5000C405BFCF31E0F31609F4BBCFF5CF1123A3
:100D600031F085E08F1508F4B4CF802FDFCF94E009
:100D70009F1508F4AECFEACFFF2041F3D93349F4F1
:100D8000FFEF27EE33E0F15020403040E1F700C0A4
:100D900000008D2F0E9476059CCF8C2F869586951E
:100DA000837069F0813009F094CF8D2F9C2F937060
:100DB000111102C090E080E00E94AF178ACF8D2F02
:100DC0009C2F9370111102C090E080E00E9499174F
:100DD00080CF8C2F837009F041C011117ACF4D2F35
:100DE000429546954770440F440F0D2F0F7010E049
:100DF00030E020E0042E04C0000F111F221F331F1B
:100E00000A94D2F760E070E0CB01D4FF0FC06FE02E
:100E100070E080E090E004C0660F771F881F991F84
:100E20004A95D2F76095709580959095C695C69530
:100E3000C370602B712B822B932BC23049F058F476
:100E4000C13019F00E94B00844CF0E949E0841CFE3
:100E50000E94C2083ECF0E949C083BCF869511237A
:100E600011F08C2F8170882309F433CF4D2F4295D8
:100E700046954770440F440F0D2F0F7010E030E07F
:100E800020E0042E04C0000F111F221F331F0A94FC
:100E9000D2F760E070E0CB01D4FF0FC06FE070E0EC
:100EA00080E090E004C0660F771F881F991F4A9565
:100EB000D2F76095709580959095C695C695C3704C
:100EC000602B712B822B932BC23049F058F4C13028
:100ED00019F00E947509FDCE0E946309FACE0E94A6
:100EE0008709F7CE0E94D808F4CECF70112329F0DD
:100EF0008C2F0E94FE088D2F19CF8D2F0E94C405C4
:100F00008C2F0E941F09E5CED23F51F160F4D03FF3
:100F1000B9F0D13F81F0112309F449C0F1108ECE10
:100F20008C2F8F7121C0D33F11F1D43FA1F7809155
:100F3000400282FF26C08C2F8F71112311F314C041
:100F4000112349F084E08F1508F4C3CE8C2F8F71E4
:100F50000E944209BECE95E09F1508F4BACEF6CFA6
:100F60008C2F8F711111CDCF0E94FE08B2CE1123AC
:100F700029F08C2F8F710E94E908ABCE0E94E40803
:100F8000A8CE112349F0CF718C2F0E94FE0863E098
:100F90008C2F0E94F30D9DCE81E00E940E0EE1E0A9
:100FA000EF1508F096CE82E00E940E0E92CEF11060
:100FB000E5CE8C2F8F71A5CFDF91CF911F910F912F
:100FC000FF90EF90DF90CF90BF9008950F931F9305
:100FD000CF93DF93EC01688179818A810E94490A6D
:100FE0008C010E9499090E949B08B801CE01DF91F3
:100FF000CF911F910F910C94CB05CF93DF93EC0110
:101000008B819C81892B29F08881998189238F3F4D
:1010100059F4DF91CF910895CE010E94E607CE01E9
:10102000DF91CF910C948803CE010E94A703811118
:10103000F3CF0E94630D882361F38A81882349F3EB
:101040008091400282FDE5CF82E0DF91CF910C9448
:101050000E0E882321F00E94800D0C94AD0D089592
:10106000882321F00E94860D0C94AD0D089590E028
:1010700080E00E94991790E080E00E94AF170E94E4
:101080008D0D0C94AD0D0E94530D0C9437080E94E9
:101090007D0D0C94430892959F70963091F058F412
:1010A000925F9F70923058F4803F19F030F4883E80
:1010B00030F481E008959A5FF4CF843FD1F380E06B
:1010C0000895883EB0F3813FD1F7F3CFFC018081D2
:1010D00091810E943F0A0C944B08CF93DF9300D07C
:1010E00000D00F92CDB7DEB70F900F900F900F90FA
:1010F0000F90DF91CF910895CF93DF9300D000D070
:1011000000D0CDB7DEB726960FB6F894DEBF0FBE7F
:10111000CDBFDF91CF91089508950C948C080E9463
:101120008D086093BA017093BB018093BC019093CA
:10113000BD010C94370808950C948F080F931F93EA
:101140000091BA011091BB012091BC013091BD0109
:10115000602B712B822B932B1F910F910C948F0876
:101160000F931F930091BA011091BB012091BC0114
:101170003091BD0160237123822393231F910F912E
:101180000C948F080F931F930091BA011091BB012B
:101190002091BC013091BD016027712782279327E0
:1011A0001F910F910C948F080C948C080C94D40808
:1011B0000E94D6086093B6017093B7018093B8017E
:1011C0009093B9010C94370860E070E0CB010C9467
:1011D000D8080F931F9341E050E060E070E08A016F
:1011E0009B0104C0000F111F221F331F8A95D2F7E5
:1011F000C901B8011F910F910C94D8080F931F9348
:1012000041E050E060E070E004C0440F551F661FED
:10121000771F8A95D2F78091B6019091B701A0917E
:10122000B801B091B9018A019B01082B192B2A2B17
:101230003B2BC901B8011F910F910C94D8080F9353
:101240001F9341E050E060E070E004C0440F551F80
:10125000661F771F8A95D2F7CB01BA01609570950A
:10126000809590950091B6011091B7012091B80139
:101270003091B90160237123822393231F910F9131
:101280000C94D8080F931F9341E050E060E070E0A9
:1012900004C0440F551F661F771F8A95D2F78091AF
:1012A000B6019091B701A091B801B091B9018A013E
:1012B0009B01082719272A273B27C901B8011F913D
:1012C0000F910C94D8080F931F930091B6011091C1
:1012D000B7012091B8013091B901602B712B822B9D
:1012E000932B1F910F910C94D8080F931F9300918B
:1012F000B6011091B7012091B8013091B901602376
:101300007123822393231F910F910C94D8080F937C
:101310001F930091B6011091B7012091B80130914F
:10132000B90160277127822793271F910F910C9491
:10133000D8080895CF93DF93282F362F892F65E0A3
:101340000E941C20820F982F9770E1E001C0EE0FE1
:101350009A95EAF786958695869590E065E070E027
:101360000E942520DC01AE55BE4F50E040E0632FC7
:1013700070E08D91ED0121979B01042E02C03695FE
:1013800027950A94E2F72170219528272E232827F4
:1013900028834F5F5F4F4530510559F7DF91CF915B
:1013A0000895282F892F65E00E941C20820FA82F06
:1013B000A77086958695869590E065E070E00E941E
:1013C0002520FC01EE55FE4F50E040E080E02191E9
:1013D00030E00A2E02C0369527950A94E2F7217074
:1013E0003327042E01C0220F0A94EAF7822B4F5FA5
:1013F0005F4F4530510559F70895BF92CF92DF9264
:10140000EF92FF920F931F93CF93DF938C01C090C5
:10141000B601D090B701E090B801F090B901809189
:10142000BA019091BB01A091BC01B091BD01C82A45
:10143000D92AEA2AFB2ACFE1D0E0BC2ED701C60187
:101440000C2E04C0B695A795979587950A94D2F768
:1014500080FD0EC0219788F7B12C8B2DDF91CF91A5
:101460001F910F91FF90EF90DF90CF90BF90089564
:10147000B8018C2F0E94F610019761F3EECFCF9345
:10148000DF93EC010E94FD09BE01DF91CF910C9426
:10149000F6101F93CF93DF93EB019091A101992355
:1014A00031F0CB01DF91CF911F910C943F0A88233B
:1014B00079F0CB010E94FD09182F682FCE010E9400
:1014C0009A09BE01812FDF91CF911F910C94F610E4
:1014D000CB010E94D109182FF4CFCF93DF93C09195
:1014E000BE018091BF018C1303C0DF91CF9108959D
:1014F000D0E0CE0166E070E00E942520FC01E054BF
:10150000FE4F4081518162817381848195810E9467
:101510007C082196C770E5CF4091F0015091F10110
:101520006091F2017091F3018091F4019091F501C5
:101530000C947C08FF920F931F93CF93DF938091BD
:10154000F501807FC1F48091F2018823A1F0209100
:10155000BE010091BF014091F0011091F101A091F5
:10156000F301B091F401F42EF122C0910001D09169
:101570000101021306C0DF91CF911F910F91FF90DF
:10158000089530E0109719F08FEFF81204C02F5F24
:101590003F4F2770EECFC90166E070E00E94252022
:1015A000FC01E054FE4F81818113F1CF80818413CF
:1015B000EECF82818111EBCF838194818A1B9B0BBB
:1015C0008C179D0720F78091F5018F7080618093C3
:1015D000F501C90166E070E00E942520FC01EB5393
:1015E000FE4F90819F709061908380EF91E00E9408
:1015F000FD07DF91CF911F910F91FF900C946D0A21
:10160000AF92BF92CF92DF92EF92FF920F931F9310
:10161000CF93DF93CDB7DEB761970FB6F894DEBFF7
:101620000FBECDBF8C0185E0F801DE011D96019053
:101630000D928A95E1F7F801E28080EFC82E81E0F3
:10164000D82E6091F3017091F4016115710509F4D0
:1016500062C19091F0013091F101892F83238F3F76
:1016600009F459C140812181A380B480F090F20136
:10167000F501E61BF70BBF01E0910001F0910101BC
:10168000FF2009F4F8C08091F501582F507F6E17A4
:101690007F0708F0B0C051117AC0FE2C321323C06E
:1016A000941321C0E1101FC08F7080618093F501F9
:1016B0000E948C0AC6010E94FD078091F501F80185
:1016C00085838F2D61960FB6F894DEBF0FBECDBF18
:1016D000DF91CF911F910F91FF90EF90DF90CF900E
:1016E000BF90AF900895AB2829F0842F82238F3FBD
:1016F00009F02AC180E0F82FF170DF2EE091BE01E1
:101700003091BF0180FD20C0EE20D9F28091F5011B
:1017100081608093F501F12CD4CFF0E0CF0166E039
:1017200070E00E942520DC01A054BE4F11968C91E0
:101730001197821307C08C91841304C012968C9168
:101740008E11E2CF3196E770E313E7CF4D872E87F6
:101750008D859E850E943F0A292F22952F70223069
:1017600050F0243078F49F7051F0F8019581907F0B
:1017700031F4D12C0AC09F7011F08823D1F3805E20
:101780008830B8F3C8010E94FD07FD2C9ACF3213B0
:1017900006C0941304C0F801EE2009F488C0C80103
:1017A0000E946608882319F1EE2009F18091F50165
:1017B000803270F02091F0013091F10138872F8351
:1017C0001986BB86AA868C87CE0107960E94FD07E4
:1017D00086E0F801A0EFB1E001900D928A95E1F763
:1017E0000E949A0A0E948C0AFF24F3946ACFC801CF
:1017F0000E94FD07F9CF511114C07A2DB98AA88A29
:10180000522F6E2D89890E946D0880EF91E00E9411
:10181000FD0786E0F60111928A95E9F70E948C0A8D
:101820007ACF32130FC094130DC0E1100BC0F80132
:101830008583C8010E94FD0786E0F60111928A9512
:10184000E9F73FCFC8010E946608882381F2EE20A5
:1018500071F28091F501803208F4BACF2091F00145
:101860003091F1013A8329831B82BD82AC828E8341
:10187000CE010196ABCF6E177F0708F03EC0FE2C5D
:10188000EE2009F4B4CF32132AC0941328C08091FB
:10189000F50180FD1BC0982F907FC1F0F801858372
:1018A000903F31F0982F907F905F8F70892B8583C8
:1018B000C8010E94FD0786E0F801A0EFB1E00190A9
:1018C0000D928A95E1F70E948C0AFBCE86E0F80122
:1018D000A0EFB1E001900D928A95E1F7F2CEC80138
:1018E0000E946608811174CF8091F5018160809318
:1018F000F501C8010E94FD07E4CE7A2DB98AA88AB5
:10190000522F6E2D89890E946D0886E0F601119292
:101910008A95E9F7D8CFEE2009F469CFC8010E9473
:101920006608F82E882309F462CF86E0F801A0EF5C
:10193000B1E001900D928A95E1F780EF91E00E946D
:101940002B050E949A0ABFCF81E08E25D4CECF937B
:10195000DF93CDB7DEB72C970FB6F894DEBF0FBE7E
:10196000CDBF4F83588769877A878B879C87CE0145
:1019700007960E94000B8823D1F08A859B85892BCE
:1019800039F04F815885842F85238F3F09F076C029
:101990008091BE019091BF01891349C02C960FB66A
:1019A000F894DEBF0FBECDBFDF91CF91089586E0E2
:1019B000FE013796DE01119601900D928A95E1F7AE
:1019C0008A859B85892B21F38F81988589238F3F79
:1019D000F9F28091BF0190E09C012F5F3F4F27708B
:1019E00033274091BE014217130671F40E94470845
:1019F0001092BF011092BE0186E0E0EFF1E0DF013E
:101A00001D928A95E9F7C4CF66E070E00E94252018
:101A1000DC01A054BE4F96E0FE01319601900D927C
:101A20009A95E1F72093BF010E946D0AB1CF90E033
:101A300066E070E00E94252080549E4F0E94000BBB
:101A4000882309F4ABCF8091BE0190E066E070E09E
:101A50000E942520FC01E054FE4F408151816281AB
:101A60007381848195810E947C088091BE0190E001
:101A70000196877099278093BE018ACF69857A8500
:101A80008B859C850E947C0883CF682F8091020102
:101A9000909103010C940D18682F80910201909190
:101AA00003010C940F1880910201909103010C9492
:101AB00011188091FE0185958595859508958091F1
:101AC000FE01877008959091FE01977081E009F4FE
:101AD00080E0089580910902089590910902892B70
:101AE000809309020895809590910902982390931C
:101AF0000902089580930902089510920902089539
:101B000090910802892B8093080208958095909106
:101B100008029823909308020895109208020895ED
:101B20008091FF01089508950C94930D90914002C7
:101B300092FD08C09091FF01981721F08093FF015A
:101B40000C94940D08958091FF01882329F0109240
:101B5000FF0180E00C94940D0895CF93DF93E09102
:101B60000201F0910301809109028083E09102015A
:101B7000F0910301808190910802892B80839091DC
:101B8000FF01992381F0E0910201F091030180812E
:101B9000892B808380910201909103010E94C517D7
:101BA00081110E94A30DC0910201D091030148E070
:101BB00050E066EF71E0CE010E947020892B69F041
:101BC00088E0FE01A6EFB1E001900D928A95E1F761
:101BD000CE01DF91CF910C944D17DF91CF910895F5
:101BE00008950C94F00D9091400292FD10C0982F32
:101BF000990F990F990F962B9093FE010E94FE0862
:101C00008091FE018595859585950C94F10D0C9438
:101C1000FE081092FE0180E00C94F10D9091FE01FF
:101C2000809589238093FE01282F277091F4282F17
:101C3000082E000C330B9217130659F090914002B6
:101C400092FD07C08595859585950E941F090C9486
:101C5000090E0895CF93C82F8091400282FB9927E7
:101C600090F99C17E9F0C0FB82F9809340028091C3
:101C70003F02909140020E94820E82E00E940E0E6E
:101C800080911C0280FF0CC01F92CF9381ED91E0E8
:101C90009F938F930E94AD020F900F900F900F9023
:101CA000CF9108958091400282FB882780F991E0CE
:101CB00089270C942A0E81E00C942A0E80E00C9463
:101CC0002A0E90E080E00E94852021E0893E9E4F10
:101CD00009F020E0822F089582E090E00C947D20AE
:101CE00083E090E00C947D20CF9384E090E00E940C
:101CF0007D20C82F82E290E00E947D20982F8C2FBB
:101D0000CF910895CF93C92F682F84E090E00E946F
:101D10008B206C2F82E290E0CF910C948B20AB0152
:101D2000BC018FE090E00C949D20AB01BC0183E1ED
:101D300090E00C949D2060E070E0CB010C94950E37
:101D400060E070E0CB010E948F0E0C949B0E69EE58
:101D50007EEF90E080E00E94A92060E082E090E0C9
:101D60000E948B2060E083E090E00E948B20109224
:101D7000BA011092BB011092BC011092BD0160E04B
:101D800084E090E00E948B2060E082E290E00E947C
:101D90008B2060E085E090E00E948B2060E086E090
:101DA00090E00E948B206FEF87E090E00E948B20F4
:101DB00040E050E0BA0188E090E00E949D2060E0A1
:101DC0008DE090E00E948B2040E050E0BA0188E175
:101DD00090E00E949D2060E087E190E00E948B20CF
:101DE00040E050E0BA018CE190E00E949D2070E05C
:101DF00060E080E290E00E94A92040E050E0BA015B
:101E000088E190E00E949D200C94A00E0C94A70EF7
:101E1000682F8EE090E00C948B200E94BA1860939B
:101E200018027093190280931A0290931B02609318
:101E3000140270931502809316029093170208956E
:101E40000E94BA18609318027093190280931A02C4
:101E500090931B0260931002709311028093120200
:101E600090931302089508950C94B60208950C946B
:101E7000360F82EB9AE10E9434170E94330F0C94C4
:101E8000340F81E008950C94410F089508950E9445
:101E9000450F0C94460F0E94D5110E94AB040C9480
:101EA000BF130E94A5180E94EA120E944B0F0E94C5
:101EB000F1150C94370F9F92AF92BF92CF92DF92A1
:101EC000EF92FF920F931F93CF93DF93CDB7DEB7BF
:101ED0002A970FB6F894DEBF0FBECDBF0E94FF1247
:101EE000C82E81110E940D0F8AE0A82E82E0B82E24
:101EF00010E000E0902E802F0E94FF11E82EF501E7
:101F0000F1905F01F81609F445C080911C0281FD33
:101F10000E9405128F2D8E25D12CFF24F394982F2B
:101F20009F2199F10E94430F882399F0DE829F82BE
:101F3000EF2081E009F480E088870E94AE1881607C
:101F4000782F9A8789874E815F8168858A850E946C
:101F5000ED04F801E65FFD4F8081F826F08281E014
:101F6000C11001C080E02A960FB6F894DEBF0FBE04
:101F7000CDBFDF91CF911F910F91FF90EF90DF9038
:101F8000CF90BF90AF909F900895D394FF0CF5E051
:101F9000DF12C5CF0F5F1F4F0630110509F0AACF22
:101FA0008FEF89838A831B820E94AE188160782F0D
:101FB0009D838C8349815A816B818D810E94ED04C0
:101FC000CECF0E945B0F0E94041681110E94200F49
:101FD0000C94BB04CF93DF930E94FA10EC0181159F
:101FE00022E59207E8F5811531E5930708F0B1C0C5
:101FF000883E910510F5803E910570F5883A91056F
:1020000070F4853A910508F07BC08130910521F18B
:10201000009711F1049700F5D0E0C0E01DC08F3BA0
:102020009105D0F7C85AD0E0CC0FDD1FCE5BDE4F54
:102030000990D881C02DD4640FC0811540E5940764
:1020400008F069C0C11580E4D80708F061C0CE016E
:102050009A9581159F4100F7CE01DF91CF910895A8
:10206000811536E5930730F5811545E5940708F0AD
:102070008BC0C11584E5D80708F081C09C2F9695C8
:1020800096959E0123703327C115D34508F466C089
:10209000C1E0D0E002C0CC0FDD1F2A95E2F7892F06
:1020A00090E075E0880F991F7A95E1F7C82BD92B3E
:1020B000DA68D2CFC1158AE5D80778F4C11529E5C9
:1020C000D20708F06BC0C11538E5D30708F4A4CFD8
:1020D000DC2FCC27C06FD06ABFCFCE0190568115C0
:1020E000904208F099CF8D2F8F710E94911190E04E
:1020F000982F882788279F719C012C2BE9014CC0C1
:10210000C55AD0E0C059DE4FC881D0E0D064A4CF1A
:10211000DF70D06AA1CFA4E096958795AA95E1F7E4
:1021200083702C2F26952695237030E0B5E0220F82
:10213000331FBA95E1F7382B8C2F8370C1E0D0E0C4
:1021400002C0CC0FDD1F8A95E2F7C22BD32BDC68CF
:1021500083CFD82FCC27C16FD06A7ECFC1E0D0E02B
:1021600002C0CC0FDD1F2A95E2F7892F90E0E5E051
:10217000880F991FEA95E1F7C82BD92BE8CFDC2F00
:10218000CC27C46FD06A68CF0E949111C82FD0E0CD
:10219000DC2FCC27CC27DF71D0625ECF8C2F8F70E5
:1021A0000E94911134E0D695C7953A95E1F7CF702A
:1021B0009C2FEC01D06950CF282FE62F872F90E07D
:1021C00065E070E00E942520E80FF92FF11D822FB5
:1021D00090E06EE170E00E942520E80FF91FEE0FFD
:1021E000FF1FEC58FF4F8591949108950E94DC10D9
:1021F0000C94EA0F82389105B1F1B0F48133910566
:1022000009F475C048F48932910509F469C08A322D
:10221000910509F473C008958533910509F459C0F7
:102220008933910501F10895833E9105A9F138F4B0
:10223000803E9105F9F0823E910549F10895863E70
:102240009105A9F1873E9105C9F1843E910519F5E3
:102250002091400221FF1FC080913F0284FD14C0E5
:1022600087EE90E0089520913F022370A1F080EE68
:1022700090E0089520913F0220FD47C03091400238
:1022800030FF09C024FF44C090E080E004C02091EA
:102290003F0222FDF7CF089520913F0222FD3BC06F
:1022A0003091400230FDE3CF24FFF5CFEDCF2091F8
:1022B0003F0223FFF0CF24FDE7CFD2CF20913F0292
:1022C00023FD2CC03091400231FFEECF84EE90E030
:1022D000089520913F0225FFDECF89E290E0089526
:1022E00020913F0225FFD7CF85E390E0089520910C
:1022F0003F0226FFD0CF8AE290E0089520913F026E
:1023000026FFC9CF81E390E0089589E390E0089526
:1023100083EE90E0089582EE90E0089586EE90E0DE
:10232000089590913F0292FF06C0282F287128300F
:10233000F9F4877F846093FF06C0282F2871283125
:10234000F1F4877E84612091400220FF06C0382F7F
:1023500038713830D9F4877F816021FF06C0282F7B
:1023600028712831D1F4877E816194FD877E08959C
:10237000282F24712430F9F68B7F8860DCCF282F3A
:102380002471243101F78B7E8861DDCF382F3171C4
:10239000313019F78E7F8860E0CF282F21712131ED
:1023A00021F78E7E8861E1CF08950E94610E811130
:1023B00002C00E94060F0E946C0E80931C020E94B5
:1023C000740E9093400280933F020E94D4110E94A9
:1023D000700E682F70E090E080E00E949C08609191
:1023E000B6017091B7018091B8019091B9010C9438
:1023F000D60808950C94F91108950C94FC11E82F57
:10240000F0E0E95BFD4F80810895CF92DF92EF927B
:10241000FF920F931F93CF93DF9385EF91E00E947C
:10242000140287E4E82E82E0F82ED0E0C0E090EFBE
:10243000C92E91E0D92E08EE11E0DF93CF93DF9201
:10244000CF920E94AD028DEE91E00E941402F7013E
:1024500081917F010E948C041F928F931F930F9391
:102460000E94AD0286EE91E00E94140221968DB783
:102470009EB708960FB6F8949EBF0FBE8DBFC630AC
:10248000D105D9F6DF91CF911F910F91FF90EF9079
:10249000DF90CF90089580EA8A95F1F7089500C003
:1024A00008950C944B12F894E82FE295EF70F0E049
:1024B00031A1282F2F7081E090E001C0880F2A956C
:1024C000EAF7982F9095932391A392A1892B82A349
:1024D00078940895CF93DF93C8E7D1E089918F3F37
:1024E00011F00E94531281E0CE37D807B9F7C3E745
:1024F000D1E089918F3F11F00E94531281E0C837DB
:10250000D807B9F7DF91CF910895CF92DF92EF927C
:10251000FF920F931F93CF93DF93EC01D62E062FDC
:1025200010E0C80188589E4F7C01FC0180818F3FDC
:1025300009F445C0F894E82FE295EF70F0E091A11E
:102540008F7021E030E001C0220F8A95EAF7892FD1
:10255000822B81A382A12095282322A378940E9414
:102560004F12E3E7F1E048E751E031E0C12C21915F
:102570002F3F71F1A22FA295AF70B0E090968C9191
:1025800090E02F7002C0959587952A95E2F780FD1F
:102590001FC0832FC82A330F4E175F0741F7F7017B
:1025A00080818F3F11F00E94531261E0C11001C081
:1025B00060E08D2D0E945112C00FD11FC882DF91A3
:1025C000CF911F910F91FF90EF90DF90CF900895E2
:1025D00080E0E0CF0E946A1286E0E7E4F2E0DF01EB
:1025E000982F1D929A95E9F7E1E4F2E0DF011D9240
:1025F0008A95E9F786E00E9447130C949303FF92B3
:102600000F931F93CF93DF9300D000D000D0CDB7AE
:10261000DEB78E010F5F1F4F86E0F80111928A9599
:10262000E9F7F12C6F2DC8010E948512F394F6E0B2
:10263000FF12F8CF46E050E0B80181E492E00E943A
:102640007020FF24F394009709F4F12C892B41F0BA
:1026500086E0F801A1E4B2E001900D928A95E1F7DD
:102660002F2D46E067E472E081E492E00E94481377
:102670000E9495038F2D26960FB6F894DEBF0FBEED
:10268000CDBFDF91CF911F910F91FF9008950895D5
:10269000FF920F931F93CF93DF93F82E092F162FDE
:1026A000D72FC42F222349F081E080931F020E947C
:1026B000AE1890931E0280931D0280911F02882302
:1026C000A1F080911D0290911E020E94C6180597EC
:1026D00060F0EF2DF02FA12FBD2FCE0FDF2FD11DDA
:1026E000EC17FD0741F410921F02DF91CF911F916B
:1026F0000F91FF90089581918D93F2CF0E942D1B31
:102700000E94510F0C94391B0E943D1B0E94E10F47
:102710000C945B1B0E944E180E94141B0E94390FE0
:102720000E947E130E9484130E94470FFBCFCF9319
:10273000DF93EC0197FF0CC0FB018281882341F0FD
:102740000E94FD13CE019F770E9474140E944C14C6
:1027500081E0DF91CF91089590914E02923069F41B
:102760008A3048F490E009966AE070E00E944220C6
:10277000875A0C94B5058650FCCF0C9482048CE0EB
:1027800090E00E947D20482F50E070E060E0409390
:102790004E0250934F0260935002709351029091F9
:1027A0001C0290FF0CC01F928F9383E292E09F93D4
:1027B0008F930E94AD020F900F900F900F9008958D
:1027C00060914E028CE090E00C948B2080934E023E
:1027D0000E94E01380911C0280FF0EC080914E0287
:1027E0001F928F9384E092E09F938F930E94AD029B
:1027F0000F900F900F900F9008950E944A178695A2
:102800008170809353020E944A17817080934D0219
:1028100080914E02813039F480915302882319F05F
:1028200089E30E94B5050E946A0D809352020E94BE
:102830007D0D80914E02813089F0882359F08230DD
:1028400091F0843021F18FE39CE90197F1F700C00A
:102850000000089582EE0E943005F5CF88E193E0F4
:102860000E942B03F0CF80914D02811103C083E5BC
:102870000E94B50582EE0E9430058FE39CE9019726
:10288000F1F700C0000087E50E94B505DCCF86EEB9
:102890000E94B50588E1F8CF80914E02813071F039
:1028A000882341F08230A9F08430E1F08091520217
:1028B0000C947A0D82EE0E947605F8CF8CE20E948D
:1028C000B50580915302882389F389E30E94B505F9
:1028D000EDCF82EE0E94760580914D028111E6CF08
:1028E00083E5F4CF88E2F2CF0F931F93CF93DF936A
:1028F0008C01CCE0D0E0C8010C2E02C096958795E3
:102900000A94E2F78F700E94AC132497CC3F8FEFAC
:10291000D80789F7DF91CF911F910F9108950F93F9
:102920001F93CF93DF93EC018B01FB0182818823FE
:1029300051F00E946A0DCE01825E9C458530910562
:1029400010F40E94E613B801CE01DF91CF911F91E0
:102950000F910C949713CF93DF93EC01FB018281CD
:10296000882309F433C1C430FDE5DF07C0F5CB3F50
:102970009CE5D90730F49E0122503C4524313105B5
:10298000B0F50E94740E9093400280933F02C131D3
:102990008CE5D80709F4EEC008F069C0C930ECE551
:1029A000DE0709F4D5C0C8F5C5308CE5D80709F4B1
:1029B000C7C000F5C330ECE5DE0709F4B9C008F084
:1029C000BBC0C230DC4509F4ADC080913F0290919C
:1029D00040020E94820E0E94470880E008C0C23672
:1029E000EDE5DE0771F2C63AFDE5DF0751F2DF9152
:1029F000CF91089580913F028062C7309CE5D9074E
:102A000009F493C080913F028061C830DC4508F42E
:102A10008CC080913F02806488C080913F028B7F90
:102A2000CD30FCE5DF0709F480C098F480913F02C7
:102A30008E7FCB309CE5D90709F477C080913F02A7
:102A40008C60CC30DC4508F470C080913F028D7FF3
:102A50006CC080913F028F7ECF30FCE5DF0709F428
:102A600064C008F47BC080913F028F7D5EC0CE3F82
:102A70009CE5D90709F47AC050F5C531FCE5DF07BC
:102A800009F486C098F480913F02837FC3319CE5AE
:102A9000D90709F44AC008F471C00E944708909110
:102AA0003F02892F97FB87F980583FC0CC3FFCE558
:102AB000DF0709F449C008F055C0809140028160E9
:102AC000CB3FDC4509F081CF809340027ECFC230FE
:102AD000EDE5DE0709F468C0A8F4C1158DE5D80757
:102AE00009F452C0809140028360C130DD4560F33B
:102AF00080914002982F909591708E7F892B90FB4A
:102B000081F9E2CFC236EDE5DE0709F451C0C63ADD
:102B1000FDE5DF0709F453C0C330DD4509F055CFAB
:102B200080E043C080913F02816080933F024DCF9F
:102B300080913F028260F9CF80913F028460F5CF9F
:102B400080913F028860F1CF809140028260BCCFCB
:102B50000E94470880913F028068E7CF80913F0242
:102B6000877FE3CF809140028E7FAECF809140027D
:102B70008D7FAACF80913F028F7BD7CF0E944708DD
:102B800080913F028F77D1CF809140028C7F9CCF84
:102B900080913F0282FB992790F921E0922790FBD8
:102BA00082F990FB83F9C1CF81E00E94080F0DCF1D
:102BB00090913F02892F8F7E94FF8061B6CF9091D4
:102BC0003F02892F8E7F90FF8160AFCF81E00FCFD2
:102BD0008FE891E00197F1F700C0000008950C9490
:102BE000BA0255985D9A3C98449A0E94E81589B1BA
:102BF00085FB882780F9349905C090E0892B809364
:102C00002202089592E0FACFE0912202EE0FEE0F39
:102C1000E093220249B145FB882780F946B144FB85
:102C2000222720F944FF02C022E030E0822BE82B6B
:102C3000E0932202EF70F0E0E258FE4F8081909125
:102C40002102890F8093210220E0843054F080918A
:102C500020028F5F8093200260E080E00E94EF15E9
:102C600021E0809121028D3F54F480912002815017
:102C70008093200261E080E00E94EF1521E08091C6
:102C80002102082E000C990B64E070E00E944220A3
:102C900080932102822F0895CF93DF93EB01863139
:102CA0009C4511F50E946A0D9A81992399F08A7AC0
:102CB00091E009F490E090932302811109C089E228
:102CC0000E94450D0E94AD0D80E0DF91CF910895E7
:102CD00085E3F6CF80912302811104C089E20E942E
:102CE0004C0DF0CF85E3FBCF81E0EFCF0F931F9327
:102CF000CF93DF93C42FD22FFC0182818823C9F0A8
:102D0000409326020E94AE189093250280932402DD
:102D100080E28C0F883008F050C0C77081E001C09D
:102D2000880FCA95EAF7DF91CF911F910F910C940C
:102D3000BD0510912602141335C080912402909194
:102D400025020E94C618883C910560F5C0E2CD0FAF
:102D50001D17B9F080E2810F883040F4177081E0D0
:102D600001C0880F1A95EAF70E94C405C83048F4DC
:102D700081E09D2F977001C0880F9A95EAF70E9415
:102D8000BD05802F0E94B505C830B8F4D77081E02A
:102D900001C0880FDA95EAF7DF91CF911F910F916B
:102DA0000C94C40580E28C0F883038F4C77081E041
:102DB00001C0880FCA95EAF7EFCFDF91CF911F913D
:102DC0000F9108950F939C01CB01243F4CE53407EC
:102DD00059F1A8F4293DFCE53F0701F12A3D4CE5F6
:102DE0003407D1F1283D3C4591F406E221EE41EE55
:102DF00068ED7CE50E94761680E00F910895263FED
:102E0000FCE53F07E9F0B0F0273F3C45F9F0FC0155
:102E10008281882339F110922602EFCF07E225EE56
:102E200045EE69ED7CE5E6CF06E221EE40EE64EF8B
:102E30007CE5E0CF07E225EE44EE65EF7CE5DACFF6
:102E400006E221EE42EE66EF7CE5D4CF07E225EE06
:102E500046EE67EF7CE5CECF08E221E045EE6AED75
:102E60007CE5C8CF81E0C9CF90939F0180939E01FC
:102E7000089590932C0280932B020895E0912B02E9
:102E8000F0912C02309721F00190F081E02D09940F
:102E900080E008950E943E170895EF92FF920F93ED
:102EA0001F93CF93DF938C01E0912B02F0912C02C2
:102EB0003097C1F10280F381E02D099580911C02C9
:102EC00082FF30C080FF04C08BE492E00E941402B5
:102ED000D0E0C0E085E4E82E82E0F82E80911C026C
:102EE00080FF0EC0F801EC0FFD1F80811F928F93B1
:102EF000FF92EF920E94AD020F900F900F900F90F3
:102F00002196C830D10551F780911C0280FF0AC07C
:102F100083E492E0DF91CF911F910F91FF90EF90AA
:102F20000C941402DF91CF911F910F91FF90EF90BD
:102F300008952091290230912A022817390771F04B
:102F400090932A0280932902E0912B02F0912C02A7
:102F5000309721F00680F781E02D099408952091A3
:102F60002702309128022817390771F09093280220
:102F700080932702E0912B02F0912C02309721F0F0
:102F80000084F185E02D099408959C012E5F3F4F48
:102F9000AC01485F5F4F80E02417350709F40895BE
:102FA000F90191919F019923B9F38F5FF5CF6623C2
:102FB00049F0FC01329608962191261729F0E8176E
:102FC000F907D1F780E0089581E008959C01FC01A4
:102FD00032969FEF80E04191461751F09F3F19F4E0
:102FE000411101C0982F8F5F8630A9F79F3F09F4E8
:102FF0000895290F311D97FD3A95F90162830895CF
:10300000FC01329608962191261303C0DF01119727
:103010001C92E817F907B9F708950C94E6170C9479
:103020000018029626E0FC0111922A95E9F708950E
:1030300008950C941818811105C081E080932D0229
:103040000C94191882E0FACF83E080932D020C943F
:1030500019180C941B1881E080932D020C941918F8
:103060000C942B18089508950C943318089508951E
:103070000C943218CF930E9436180E94FF120E94BF
:103080003718C0E08C2F0E94FF11811105C0CF5F5F
:10309000C630C1F7CF91089581E0FCCF08951F920B
:1030A0001FB61F9211248F939F93AF93BF9380916C
:1030B0002E02811113C08091540290915502A0916B
:1030C0005602B09157024196A11DB11D8093540242
:1030D00090935502A0935602B0935702BF91AF91BF
:1030E0009F918F911F901FBE1F90189580915C0239
:1030F000843031F10E94140410922E0288E190E095
:1031000020E40FB6F894A895809360000FBE20933A
:10311000600083B7817F846083BF83B7816083BF92
:103120007894889583B78E7F83BF0FB6F894A8955F
:1031300080916000886180936000109260000FBEF3
:1031400008950E9447080C94180482E084BD93E01F
:1031500095BD9AEF97BD80936E0008952FB7F894B0
:103160008091540290915502A0915602B09157025D
:103170002FBF08952FB7F8946091540270915502B3
:1031800080915602909157022FBF08959C014FB72E
:10319000F8948091540290915502A0915602B091FA
:1031A00057024FBF821B930B089578941F921FB64E
:1031B0001F9211248F939F93AF93BF9380915402DA
:1031C00090915502A0915602B09157020196A11D0F
:1031D000B11D8093540290935502A0935602B09370
:1031E0005702BF91AF919F918F911F901FBE1F906B
:1031F000189581E08093E00080E28093D8001092DF
:10320000C9008FE19EE40197F1F700C0000087E05C
:1032100090EBDC018093650290936602A0936702B5
:10322000B093680288E19CE00FB6F894A89580936B
:1032300060000FBE90936000FFCF80913D02089523
:103240000895CF93DF93EC0181E08093E9008FEF45
:103250009091E800815095FD06C095ED9A95F1F7A3
:1032600000008111F5CF8091E80085FF14C050E087
:1032700040E068E070E0CE010E94CB1B8091E80046
:103280008E778093E80088E0FE01A5E3B2E001902C
:103290000D928A95E1F7DF91CF91089580933102E5
:1032A000709333026093320280915C02843001F5A6
:1032B00082E08093E9008FEF9091E800815095FDC6
:1032C00006C095ED9A95F1F700008111F5CF809138
:1032D000E80085FF0DC050E040E063E070E081E36E
:1032E00092E00E94CB1B8091E8008E778093E800EB
:1032F0000895BC0184E00C944E19BC0183E00C9449
:103300004E19089589E692E00E9414020C942B183D
:1033100085E692E00E9414026091580281E06111FA
:1033200001C080E00C94241881E692E00E9414020F
:1033300090915C0281E0943009F080E06091580245
:103340000C942918209130022F5F822F62E30E9493
:103350003620992319F020933002089510923002FC
:10336000809134028823F1F080915C028430C1F4B2
:103370009091E9009F702091EC00822F817020FDD8
:1033800080E8892B93E09093E9009091EB0090FF07
:1033900004C09091EE0097FD08C08F708093E90003
:1033A0001092340208951092F1009091E80095FD7A
:1033B000FACF9091E80090FFF0CF9091E8009E77CF
:1033C0009093E800EACF42E061EC81E00E94D31CD8
:1033D00042E261EC82E00E94D31C42E261EC83E0B5
:1033E0000E94D31C90915C0281E0943009F080E04F
:1033F000609158020C941B1880915E02833009F48E
:103400005EC030F48130B9F1823009F49AC0089579
:103410008A3009F486C08B3009F46CC0893009F019
:103420004DC080915D02813209F048C080916102F7
:1034300090916202029708F041C08091E800877F76
:103440008093E8008091E80082FF34C08091F20010
:10345000823031F48091F100813011F0863021F416
:103460008091F10080933D028091E8008B778093FA
:10347000E8000C94071D80915D02813AF9F4809177
:10348000E800877F8093E80080916102909162025A
:10349000892B61F468E085E392E070E00E941A1CD9
:1034A0008091E8008B778093E800089560E090E0D9
:1034B00080E0F3CF80915C028111C4CF08958091A8
:1034C0005D02813AD9F78091610290916202892B65
:1034D000A9F78091E800877F8093E8008091E80059
:1034E00080FFFCCF809110018093F1008091E80073
:1034F0008E77BDCF80915D02813201F780916102AC
:1035000090916202892BD1F68091E800877F8093A9
:10351000E8000E94071D80915F02809310010C94C7
:10352000470880915D02813249F68091E800877FEB
:103530008093E8000E94071D8091600280933E0204
:10354000089580915D02813A09F0B8CF8091E8003A
:10355000877F8093E8008091E80080FFFCCF809116
:103560003E02C2CF9FB7F894109234029FBF909151
:103570005C02943009F048C02091E9002F7030912E
:10358000EC00932F917030FD90E8922B23E0209374
:10359000E9002091EB0020FF34C02091EE0027FFCE
:1035A00030C020912F02222321F02091E80025FF36
:1035B00028C010922F0226E03091E80035FF14C099
:1035C0008093F1008091E80085FD27C08091E8009C
:1035D00080FFFCCF8091E8008E778093E8009F7099
:1035E0009093E90080E0089530915C02343049F412
:1035F0003091EB0035FD05C0215041F481E080930E
:103600002F029F709093E9008FEF0895EFE9FFE09C
:103610003197F1F700C00000CFCF8FB7F89421E0C9
:10362000209334028FBFDBCF84B7877F84BF0FB670
:10363000F894A89580916000886180936000109252
:1036400060000FBE80E890E00FB6F89480936100B0
:10365000909361000FBE0C9430180E94571D0E9479
:10366000AA1DE2EEF0E080818460808378940C945F
:10367000012084E091E00C94391780915C02853040
:10368000C9F48DE592E00E94140280915C028530BD
:1036900011F00C94A1180E94761880915A02882388
:1036A000A1F30E943A18882381F30E94B51B0E945F
:1036B0004708EBCF089508950C945E1B292F3327FC
:1036C0002330310521F168F42130310509F443C07C
:1036D0002230310509F444C090E080E030E020E081
:1036E00026C02132310551F122323105A9F763306C
:1036F000710590F7FB01EE0FFF1FEF56FE4F208183
:10370000318162577E4FFB01808190E010C0992784
:103710008130910581F0009729F00297E9F6EDE6F6
:10372000F2E002C0E7E9F2E0849190E09F01FA0143
:10373000318320830895E1E8F2E0F6CF633071052C
:1037400058F6660F771FFB01E956FE4F2081318145
:1037500089E090E0ECCF82E190E026EF32E0E7CF25
:103760008BE590E02BE932E0E2CF84E089BD86E092
:1037700089BD09B400FEFDCF8091D8008F7D809374
:10378000D8008091E00082608093E0008091E000AA
:1037900081FDFCCF0895AF92BF92CF92DF92FF924E
:1037A0000F931F93CF93DF936C01EB018A010E946B
:1037B000261DF82E811123C00115110539F0F801DD
:1037C00080819181C81BD90BC80ED91EB12CA12CA8
:1037D0002097A9F08091E80085FD22C08091E80043
:1037E0008E778093E80001151105A1F0F801808122
:1037F0009181A80EB91EB182A08285E0F82E8F2D8E
:10380000DF91CF911F910F91FF90DF90CF90BF90EC
:10381000AF9008950E94261D8823D1F2F82EEFCF95
:10382000F60181916F018093F1002197FFEFAF1AAC
:10383000BF0ACECFFC01809163029091640286178B
:103840009707A0F06115710529F49091E8009E7723
:103850009093E80090E06115710551F4911108C052
:103860008091E80082FF32C080E00895BC01F2CF71
:1038700080915C028823B1F18530B1F18091E8003C
:1038800083FD2EC08091E80082FDEACF8091E800A0
:1038900080FFE1CF2091F20030E06115710519F051
:1038A0002830310558F091E02830310509F090E0DA
:1038B0002091E8002E772093E800CDCF819180936E
:1038C000F100615071092F5F3F4FE7CF80915C029B
:1038D000882341F0853041F08091E80083FFC0CF1C
:1038E00081E0089582E0089583E00895FC018091CD
:1038F00063029091640286179707A0F06115710525
:1039000029F48091E8008E778093E80090E06115BB
:10391000710551F4911108C08091E80082FF33C015
:1039200080E00895BC01F2CF80915C028823B9F158
:103930008530B9F18091E80083FD2FC08091E800C7
:1039400082FDEACF8091E80080FFE1CF2091F20074
:1039500030E06115710519F02830310558F091E01B
:103960002830310509F090E08091E8008E7780934F
:10397000E800CDCF84918093F100319661507109B8
:103980002F5F3F4FE6CF80915C02882341F0853066
:1039900041F08091E80083FFBFCF81E0089582E08D
:1039A000089583E00895982F953028F08F708093C4
:1039B000E90081E008959093E900242F762F50E0EC
:1039C000981731F07091EC002091ED005091F000CB
:1039D00021FD02C09F5FE8CF3091EB003E7F309326
:1039E000EB003091ED003D7F3093ED003091EB0026
:1039F00031603093EB007093EC002093ED00509316
:103A0000F0002091EE0027FDE5CF80E00895809141
:103A10005D0287FF13C08091E80082FF06C080919D
:103A2000E8008B778093E80004C080915C028111EC
:103A3000F2CF089580915C028823D9F38091E80049
:103A400080FFF8CF8091E8008E77ECCF2091E400E2
:103A50003091E50095E6A9012091EC00822F81705C
:103A600020FF06C08091E80080FF06C080E0089536
:103A70002091E80022FD1AC080915C02882389F021
:103A8000853089F08091EB0085FD0FC02091E40026
:103A90003091E50042175307F9F29150E1F684E0C6
:103AA000089582E0089583E0089581E008950E94DA
:103AB000B41D0E94B71DE0EEF0E08081816080833C
:103AC000E8EDF0E080818F77808319BCE3E6F0E0D9
:103AD00080818160808310925B0208950E94B41DF2
:103AE0000E94B71D8091D8008F778093D800809175
:103AF000D80080688093D8008091D8008F7D809313
:103B0000D80084E089BD86E089BD09B400FEFDCF00
:103B100010925C021092580210925A0210925902AE
:103B200042E060E080E00E94D31C8091E1008E7F43
:103B30008093E1008091E20081608093E2008091B7
:103B4000E20088608093E2008091E0008E7F8093A5
:103B5000E0000895E3E6F0E080818E7F808381E0DD
:103B600080935B020C946E1D1092E20008951092F7
:103B7000E10008951F920F920FB60F9211242F9318
:103B80003F934F935F936F937F938F939F93AF93E5
:103B9000BF93EF93FF938091E10082FF0BC0809170
:103BA000E20082FF07C08091E1008B7F8093E100FB
:103BB0000E94A2198091E10080FF19C08091E2006B
:103BC00080FF15C08091E2008E7F8093E20080919B
:103BD000E20080618093E2008091D800806280934F
:103BE000D80019BC85E080935C020E9488198091FE
:103BF000E10084FF2BC08091E20084FF27C084E0B5
:103C000089BD86E089BD89B5982F917080FFFBCF73
:103C10008091D8008F7D8093D8008091E1008F7EC5
:103C20008093E1008091E2008F7E8093E20080919A
:103C3000E20081608093E20080915802882309F4B9
:103C400043C084E080935C020E9494198091E1005B
:103C500083FF29C08091E20083FF25C08091E100AD
:103C6000877F8093E10082E080935C02109258028B
:103C70008091E1008E7F8093E1008091E2008E7F51
:103C80008093E2008091E20080618093E20042E054
:103C900060E080E00E94D31C8091F00088608093F7
:103CA000F0000E948219FF91EF91BF91AF919F9117
:103CB0008F917F916F915F914F913F912F910F90D5
:103CC0000FBE0F901F9018958091E30087FD93E041
:103CD00090935C02B9CF1F920F920FB60F921124EE
:103CE0002F933F934F935F936F937F938F939F9304
:103CF000AF93BF93CF93DF93EF93FF93D091E900FE
:103D0000DF708091EC00C82FC17080FDC0E8109278
:103D1000E9008091F000877F8093F00078940E9402
:103D2000AF1E1092E9008091F00088608093F0004F
:103D3000CD2BCF70C093E900FF91EF91DF91CF9130
:103D4000BF91AF919F918F917F916F915F914F91B3
:103D50003F912F910F900FBE0F901F9018951F93BA
:103D6000CF93DF93CDB7DEB7AA970FB6F894DEBF37
:103D70000FBECDBF8DE592E02091F100FC012193B3
:103D8000CF01F2E085369F07B9F70E94FC198091B8
:103D9000E80083FF1EC180915D0290915E029A301F
:103DA00008F017C1E92FF0E0E353FF4D0C945620C3
:103DB000803899F0823809F00CC1809161028F70CF
:103DC000853008F006C18093E9008091EB0085FB07
:103DD000882780F91092E90006C0809159029091DD
:103DE0005A02911182609091E800977F9093E800C9
:103DF0008093F1001092F1008091E8008E77E5C089
:103E0000882309F4D3C0823009F0E3C080915F02B7
:103E10008111D6C0809161028F702FEF280F24305E
:103E200008F0D7C08093E9002091EB0020FFC8C0C4
:103E3000933031F48091EB0080628093EB00C0C03E
:103E40009091EB0090619093EB0021E030E001C095
:103E5000220F8A95EAF72093EA001092EA008091F7
:103E6000EB008860EACF8111B4C010915F021F7728
:103E70008091E3008078812B8093E3008091E800BB
:103E8000877F8093E8000E94071D8091E80080FFF3
:103E9000FCCF8091E30080688093E30082E0111101
:103EA00083E080935C0295C08058823008F091C016
:103EB00080915F02909160028C3D23E09207A1F512
:103EC00083E08A838AE289834FB7F894DE011396F0
:103ED00020E03EE051E2E32FF0E050935700E49100
:103EE00020FF03C0E295EF703F5FEF708E2F90E0F0
:103EF000EA30C0F0C7968D939D932F5F243159F718
:103F00004FBF8091E800877F8093E8006AE270E00D
:103F1000CE0101960E941A1C8091E8008B77809355
:103F2000E80057C0C096E7CF6091610270916202CD
:103F3000AE014F5F5F4F0E945C1BBC01892B09F4EF
:103F400048C09091E800977F9093E80089819A811A
:103F50000E94761CE1CF8038E1F58091E800877FF0
:103F60008093E800809158028093F10045CF811141
:103F700030C090915F02923060F58091E800877FB9
:103F80008093E800909358020E94071D8091580288
:103F9000882311F084E005C08091E30087FDFACF0B
:103FA00081E080935C020E94E31913C080915F025C
:103FB000813079F481E0933009F080E080935A02F7
:103FC0001092E9008091E800877F8093E8000E94CA
:103FD000071D8091E80083FF0AC08091E800877F79
:103FE0008093E8008091EB0080628093EB00AA96BA
:103FF0000FB6F894DEBF0FBECDBFDF91CF911F91FA
:104000000895CF9380915C028823A1F0C091E900CC
:10401000CF709091EC00892F817090FD80E8C82BC3
:104020001092E9008091E80083FD0E94AF1ECF70DE
:10403000C093E900CF910895002480FD060E660F1D
:1040400011F08695D1F7802D08950024552704C0DE
:10405000080E591F880F991F009729F076956795CC
:10406000B8F37105B9F7802D952F0895991B79E064
:1040700004C0991F961708F0961B881F7A95C9F7F8
:104080008095089597FB072E16F4009407D077FDCE
:1040900009D00E945C2007FC05D03EF490958195E4
:1040A0009F4F0895709561957F4F0895EE0FFF1F04
:1040B0000590F491E02D0994AA1BBB1B51E107C0A8
:1040C000AA1FBB1FA617B70710F0A61BB70B881FA8
:1040D000991F5A95A9F780959095BC01CD01089537
:1040E000FB01DC0104C08D910190801921F4415045
:1040F0005040C8F7881B990B0895F999FECF92BDDF
:1041000081BDF89A992780B50895A8E1B0E042E012
:1041100050E00C94B120262FF999FECF92BD81BDBD
:10412000F89A019700B4021639F01FBA20BD0FB6F5
:10413000F894FA9AF99A0FBE08950396272F0E94D1
:104140008C200E948B20252F0E948C20242F0C94E1
:104150008C200196272F0E948C200C948B20DC0150
:10416000CB01FC01F999FECF06C0F2BDE1BDF89A82
:10417000319600B40D9241505040B8F70895F8942C
:10418000FFCF090609063A063A06CD066906690612
:104190006906E906750784078407D81E001FE91F12
:0E41A000001FE91F331F541FE91FAB1FB71F7D
:1041AE00C80000021D19211981197D1979192019CC
:1041BE0001E200E900EA00B500B600B700CD0083C9
:1041CE0001CC008A019201940121022302240225CE
:1041DE0002260227022A02B300B4006F007000818B
:1041EE008283E200E900EA00B500B600B700CD0018
:1041FE008301CC008A019201940121022302240240
:10420E002502260227022A02B300B4006F007000B6
:10421E00818283629091923066673736353400FF23
:10422E000100010000FFFF0000010001FF0040320D
:0E423E00225C032A030803AD02C602DF020061
:00000001FF
